{
  "_format": "hh-sol-artifact-1",
  "contractName": "BorrowYourCar",
  "sourceName": "contracts/BorrowYourCar.sol",
  "abi": [
    {
      "inputs": [
        {
          "internalType": "string",
          "name": "name_",
          "type": "string"
        },
        {
          "internalType": "string",
          "name": "symbol_",
          "type": "string"
        },
        {
          "internalType": "address",
          "name": "_tokenAddress",
          "type": "address"
        }
      ],
      "stateMutability": "nonpayable",
      "type": "constructor"
    },
    {
      "inputs": [],
      "name": "ERC721EnumerableForbiddenBatchMint",
      "type": "error"
    },
    {
      "inputs": [
        {
          "internalType": "address",
          "name": "sender",
          "type": "address"
        },
        {
          "internalType": "uint256",
          "name": "tokenId",
          "type": "uint256"
        },
        {
          "internalType": "address",
          "name": "owner",
          "type": "address"
        }
      ],
      "name": "ERC721IncorrectOwner",
      "type": "error"
    },
    {
      "inputs": [
        {
          "internalType": "address",
          "name": "operator",
          "type": "address"
        },
        {
          "internalType": "uint256",
          "name": "tokenId",
          "type": "uint256"
        }
      ],
      "name": "ERC721InsufficientApproval",
      "type": "error"
    },
    {
      "inputs": [
        {
          "internalType": "address",
          "name": "approver",
          "type": "address"
        }
      ],
      "name": "ERC721InvalidApprover",
      "type": "error"
    },
    {
      "inputs": [
        {
          "internalType": "address",
          "name": "operator",
          "type": "address"
        }
      ],
      "name": "ERC721InvalidOperator",
      "type": "error"
    },
    {
      "inputs": [
        {
          "internalType": "address",
          "name": "owner",
          "type": "address"
        }
      ],
      "name": "ERC721InvalidOwner",
      "type": "error"
    },
    {
      "inputs": [
        {
          "internalType": "address",
          "name": "receiver",
          "type": "address"
        }
      ],
      "name": "ERC721InvalidReceiver",
      "type": "error"
    },
    {
      "inputs": [
        {
          "internalType": "address",
          "name": "sender",
          "type": "address"
        }
      ],
      "name": "ERC721InvalidSender",
      "type": "error"
    },
    {
      "inputs": [
        {
          "internalType": "uint256",
          "name": "tokenId",
          "type": "uint256"
        }
      ],
      "name": "ERC721NonexistentToken",
      "type": "error"
    },
    {
      "inputs": [
        {
          "internalType": "address",
          "name": "owner",
          "type": "address"
        },
        {
          "internalType": "uint256",
          "name": "index",
          "type": "uint256"
        }
      ],
      "name": "ERC721OutOfBoundsIndex",
      "type": "error"
    },
    {
      "anonymous": false,
      "inputs": [
        {
          "indexed": true,
          "internalType": "address",
          "name": "owner",
          "type": "address"
        },
        {
          "indexed": true,
          "internalType": "address",
          "name": "approved",
          "type": "address"
        },
        {
          "indexed": true,
          "internalType": "uint256",
          "name": "tokenId",
          "type": "uint256"
        }
      ],
      "name": "Approval",
      "type": "event"
    },
    {
      "anonymous": false,
      "inputs": [
        {
          "indexed": true,
          "internalType": "address",
          "name": "owner",
          "type": "address"
        },
        {
          "indexed": true,
          "internalType": "address",
          "name": "operator",
          "type": "address"
        },
        {
          "indexed": false,
          "internalType": "bool",
          "name": "approved",
          "type": "bool"
        }
      ],
      "name": "ApprovalForAll",
      "type": "event"
    },
    {
      "anonymous": false,
      "inputs": [
        {
          "indexed": false,
          "internalType": "uint256",
          "name": "carTokenId",
          "type": "uint256"
        },
        {
          "indexed": false,
          "internalType": "address",
          "name": "borrower",
          "type": "address"
        },
        {
          "indexed": false,
          "internalType": "uint256",
          "name": "startTime",
          "type": "uint256"
        },
        {
          "indexed": false,
          "internalType": "uint256",
          "name": "duration",
          "type": "uint256"
        }
      ],
      "name": "CarBorrowed",
      "type": "event"
    },
    {
      "anonymous": false,
      "inputs": [
        {
          "indexed": true,
          "internalType": "address",
          "name": "from",
          "type": "address"
        },
        {
          "indexed": true,
          "internalType": "address",
          "name": "to",
          "type": "address"
        },
        {
          "indexed": true,
          "internalType": "uint256",
          "name": "tokenId",
          "type": "uint256"
        }
      ],
      "name": "Transfer",
      "type": "event"
    },
    {
      "inputs": [
        {
          "internalType": "address",
          "name": "to",
          "type": "address"
        },
        {
          "internalType": "uint256",
          "name": "tokenId",
          "type": "uint256"
        }
      ],
      "name": "approve",
      "outputs": [],
      "stateMutability": "nonpayable",
      "type": "function"
    },
    {
      "inputs": [
        {
          "internalType": "uint256",
          "name": "",
          "type": "uint256"
        }
      ],
      "name": "availableCars",
      "outputs": [
        {
          "internalType": "uint256",
          "name": "",
          "type": "uint256"
        }
      ],
      "stateMutability": "view",
      "type": "function"
    },
    {
      "inputs": [
        {
          "internalType": "address",
          "name": "owner",
          "type": "address"
        }
      ],
      "name": "balanceOf",
      "outputs": [
        {
          "internalType": "uint256",
          "name": "",
          "type": "uint256"
        }
      ],
      "stateMutability": "view",
      "type": "function"
    },
    {
      "inputs": [
        {
          "internalType": "uint256",
          "name": "carTokenId",
          "type": "uint256"
        },
        {
          "internalType": "uint256",
          "name": "duration",
          "type": "uint256"
        }
      ],
      "name": "borrowCar",
      "outputs": [],
      "stateMutability": "nonpayable",
      "type": "function"
    },
    {
      "inputs": [
        {
          "internalType": "uint256",
          "name": "",
          "type": "uint256"
        }
      ],
      "name": "cars",
      "outputs": [
        {
          "internalType": "address",
          "name": "owner",
          "type": "address"
        },
        {
          "internalType": "address",
          "name": "borrower",
          "type": "address"
        },
        {
          "internalType": "uint256",
          "name": "borrowUntil",
          "type": "uint256"
        }
      ],
      "stateMutability": "view",
      "type": "function"
    },
    {
      "inputs": [
        {
          "internalType": "uint256",
          "name": "tokenId",
          "type": "uint256"
        }
      ],
      "name": "getApproved",
      "outputs": [
        {
          "internalType": "address",
          "name": "",
          "type": "address"
        }
      ],
      "stateMutability": "view",
      "type": "function"
    },
    {
      "inputs": [],
      "name": "getAvailableCars",
      "outputs": [
        {
          "internalType": "uint256[]",
          "name": "",
          "type": "uint256[]"
        }
      ],
      "stateMutability": "view",
      "type": "function"
    },
    {
      "inputs": [
        {
          "internalType": "uint256",
          "name": "carTokenId",
          "type": "uint256"
        }
      ],
      "name": "getCarInfo",
      "outputs": [
        {
          "internalType": "address",
          "name": "owner",
          "type": "address"
        },
        {
          "internalType": "address",
          "name": "borrower",
          "type": "address"
        },
        {
          "internalType": "uint256",
          "name": "borrowUntil",
          "type": "uint256"
        }
      ],
      "stateMutability": "view",
      "type": "function"
    },
    {
      "inputs": [],
      "name": "getOwnedCars",
      "outputs": [
        {
          "internalType": "uint256[]",
          "name": "",
          "type": "uint256[]"
        }
      ],
      "stateMutability": "view",
      "type": "function"
    },
    {
      "inputs": [
        {
          "internalType": "address",
          "name": "owner",
          "type": "address"
        },
        {
          "internalType": "address",
          "name": "operator",
          "type": "address"
        }
      ],
      "name": "isApprovedForAll",
      "outputs": [
        {
          "internalType": "bool",
          "name": "",
          "type": "bool"
        }
      ],
      "stateMutability": "view",
      "type": "function"
    },
    {
      "inputs": [
        {
          "internalType": "address",
          "name": "to",
          "type": "address"
        },
        {
          "internalType": "uint256",
          "name": "tokenId",
          "type": "uint256"
        }
      ],
      "name": "mint",
      "outputs": [],
      "stateMutability": "nonpayable",
      "type": "function"
    },
    {
      "inputs": [],
      "name": "name",
      "outputs": [
        {
          "internalType": "string",
          "name": "",
          "type": "string"
        }
      ],
      "stateMutability": "view",
      "type": "function"
    },
    {
      "inputs": [
        {
          "internalType": "uint256",
          "name": "tokenId",
          "type": "uint256"
        }
      ],
      "name": "ownerOf",
      "outputs": [
        {
          "internalType": "address",
          "name": "",
          "type": "address"
        }
      ],
      "stateMutability": "view",
      "type": "function"
    },
    {
      "inputs": [
        {
          "internalType": "uint256",
          "name": "carTokenId",
          "type": "uint256"
        },
        {
          "internalType": "uint256",
          "name": "amount",
          "type": "uint256"
        }
      ],
      "name": "payRent",
      "outputs": [],
      "stateMutability": "nonpayable",
      "type": "function"
    },
    {
      "inputs": [
        {
          "internalType": "uint256",
          "name": "carTokenId",
          "type": "uint256"
        }
      ],
      "name": "returnCar",
      "outputs": [],
      "stateMutability": "nonpayable",
      "type": "function"
    },
    {
      "inputs": [
        {
          "internalType": "address",
          "name": "from",
          "type": "address"
        },
        {
          "internalType": "address",
          "name": "to",
          "type": "address"
        },
        {
          "internalType": "uint256",
          "name": "tokenId",
          "type": "uint256"
        }
      ],
      "name": "safeTransferFrom",
      "outputs": [],
      "stateMutability": "nonpayable",
      "type": "function"
    },
    {
      "inputs": [
        {
          "internalType": "address",
          "name": "from",
          "type": "address"
        },
        {
          "internalType": "address",
          "name": "to",
          "type": "address"
        },
        {
          "internalType": "uint256",
          "name": "tokenId",
          "type": "uint256"
        },
        {
          "internalType": "bytes",
          "name": "data",
          "type": "bytes"
        }
      ],
      "name": "safeTransferFrom",
      "outputs": [],
      "stateMutability": "nonpayable",
      "type": "function"
    },
    {
      "inputs": [
        {
          "internalType": "address",
          "name": "operator",
          "type": "address"
        },
        {
          "internalType": "bool",
          "name": "approved",
          "type": "bool"
        }
      ],
      "name": "setApprovalForAll",
      "outputs": [],
      "stateMutability": "nonpayable",
      "type": "function"
    },
    {
      "inputs": [
        {
          "internalType": "bytes4",
          "name": "interfaceId",
          "type": "bytes4"
        }
      ],
      "name": "supportsInterface",
      "outputs": [
        {
          "internalType": "bool",
          "name": "",
          "type": "bool"
        }
      ],
      "stateMutability": "view",
      "type": "function"
    },
    {
      "inputs": [],
      "name": "symbol",
      "outputs": [
        {
          "internalType": "string",
          "name": "",
          "type": "string"
        }
      ],
      "stateMutability": "view",
      "type": "function"
    },
    {
      "inputs": [],
      "name": "token",
      "outputs": [
        {
          "internalType": "contract ERC20",
          "name": "",
          "type": "address"
        }
      ],
      "stateMutability": "view",
      "type": "function"
    },
    {
      "inputs": [
        {
          "internalType": "uint256",
          "name": "index",
          "type": "uint256"
        }
      ],
      "name": "tokenByIndex",
      "outputs": [
        {
          "internalType": "uint256",
          "name": "",
          "type": "uint256"
        }
      ],
      "stateMutability": "view",
      "type": "function"
    },
    {
      "inputs": [
        {
          "internalType": "address",
          "name": "owner",
          "type": "address"
        },
        {
          "internalType": "uint256",
          "name": "index",
          "type": "uint256"
        }
      ],
      "name": "tokenOfOwnerByIndex",
      "outputs": [
        {
          "internalType": "uint256",
          "name": "",
          "type": "uint256"
        }
      ],
      "stateMutability": "view",
      "type": "function"
    },
    {
      "inputs": [
        {
          "internalType": "uint256",
          "name": "tokenId",
          "type": "uint256"
        }
      ],
      "name": "tokenURI",
      "outputs": [
        {
          "internalType": "string",
          "name": "",
          "type": "string"
        }
      ],
      "stateMutability": "view",
      "type": "function"
    },
    {
      "inputs": [],
      "name": "totalSupply",
      "outputs": [
        {
          "internalType": "uint256",
          "name": "",
          "type": "uint256"
        }
      ],
      "stateMutability": "view",
      "type": "function"
    },
    {
      "inputs": [
        {
          "internalType": "address",
          "name": "from",
          "type": "address"
        },
        {
          "internalType": "address",
          "name": "to",
          "type": "address"
        },
        {
          "internalType": "uint256",
          "name": "tokenId",
          "type": "uint256"
        }
      ],
      "name": "transferFrom",
      "outputs": [],
      "stateMutability": "nonpayable",
      "type": "function"
    }
  ],
  "bytecode": "0x60806040523480156200001157600080fd5b50604051620039cf380380620039cf8339818101604052810190620000379190620002a1565b828281600090816200004a919062000586565b5080600190816200005c919062000586565b50505080600a60006101000a81548173ffffffffffffffffffffffffffffffffffffffff021916908373ffffffffffffffffffffffffffffffffffffffff1602179055505050506200066d565b6000604051905090565b600080fd5b600080fd5b600080fd5b600080fd5b6000601f19601f8301169050919050565b7f4e487b7100000000000000000000000000000000000000000000000000000000600052604160045260246000fd5b6200011282620000c7565b810181811067ffffffffffffffff82111715620001345762000133620000d8565b5b80604052505050565b600062000149620000a9565b905062000157828262000107565b919050565b600067ffffffffffffffff8211156200017a5762000179620000d8565b5b6200018582620000c7565b9050602081019050919050565b60005b83811015620001b257808201518184015260208101905062000195565b60008484015250505050565b6000620001d5620001cf846200015c565b6200013d565b905082815260208101848484011115620001f457620001f3620000c2565b5b6200020184828562000192565b509392505050565b600082601f830112620002215762000220620000bd565b5b815162000233848260208601620001be565b91505092915050565b600073ffffffffffffffffffffffffffffffffffffffff82169050919050565b600062000269826200023c565b9050919050565b6200027b816200025c565b81146200028757600080fd5b50565b6000815190506200029b8162000270565b92915050565b600080600060608486031215620002bd57620002bc620000b3565b5b600084015167ffffffffffffffff811115620002de57620002dd620000b8565b5b620002ec8682870162000209565b935050602084015167ffffffffffffffff81111562000310576200030f620000b8565b5b6200031e8682870162000209565b925050604062000331868287016200028a565b9150509250925092565b600081519050919050565b7f4e487b7100000000000000000000000000000000000000000000000000000000600052602260045260246000fd5b600060028204905060018216806200038e57607f821691505b602082108103620003a457620003a362000346565b5b50919050565b60008190508160005260206000209050919050565b60006020601f8301049050919050565b600082821b905092915050565b6000600883026200040e7fffffffffffffffffffffffffffffffffffffffffffffffffffffffffffffffff82620003cf565b6200041a8683620003cf565b95508019841693508086168417925050509392505050565b6000819050919050565b6000819050919050565b600062000467620004616200045b8462000432565b6200043c565b62000432565b9050919050565b6000819050919050565b620004838362000446565b6200049b62000492826200046e565b848454620003dc565b825550505050565b600090565b620004b2620004a3565b620004bf81848462000478565b505050565b5b81811015620004e757620004db600082620004a8565b600181019050620004c5565b5050565b601f82111562000536576200050081620003aa565b6200050b84620003bf565b810160208510156200051b578190505b620005336200052a85620003bf565b830182620004c4565b50505b505050565b600082821c905092915050565b60006200055b600019846008026200053b565b1980831691505092915050565b600062000576838362000548565b9150826002028217905092915050565b62000591826200033b565b67ffffffffffffffff811115620005ad57620005ac620000d8565b5b620005b9825462000375565b620005c6828285620004eb565b600060209050601f831160018114620005fe5760008415620005e9578287015190505b620005f5858262000568565b86555062000665565b601f1984166200060e86620003aa565b60005b82811015620006385784890151825560018201915060208501945060208101905062000611565b8683101562000658578489015162000654601f89168262000548565b8355505b6001600288020188555050505b505050505050565b613352806200067d6000396000f3fe608060405234801561001057600080fd5b506004361061018e5760003560e01c80636352211e116100de578063c87b56dd11610097578063e985e9c511610071578063e985e9c5146104bb578063f7746e36146104eb578063fc0c546a1461051d578063fc2bf8f01461053b5761018e565b8063c87b56dd1461043d578063d01af8bc1461046d578063e865af041461049f5761018e565b80636352211e1461036957806370a082311461039957806395d89b41146103c9578063a22cb465146103e7578063a5adf8ea14610403578063b88d4fde146104215761018e565b806323b872dd1161014b57806340c10f191161012557806340c10f19146102e357806342842e0e146102ff578063433b80461461031b5780634f6ccce7146103395761018e565b806323b872dd146102675780632f745c59146102835780633802ebf5146102b35761018e565b806301ffc9a71461019357806306fdde03146101c3578063081812fc146101e1578063095ea7b31461021157806317f956e01461022d57806318160ddd14610249575b600080fd5b6101ad60048036038101906101a8919061260b565b610557565b6040516101ba9190612653565b60405180910390f35b6101cb6105d1565b6040516101d891906126fe565b60405180910390f35b6101fb60048036038101906101f69190612756565b610663565b60405161020891906127c4565b60405180910390f35b61022b6004803603810190610226919061280b565b61067f565b005b61024760048036038101906102429190612756565b610695565b005b6102516107b7565b60405161025e919061285a565b60405180910390f35b610281600480360381019061027c9190612875565b6107c4565b005b61029d6004803603810190610298919061280b565b6108c6565b6040516102aa919061285a565b60405180910390f35b6102cd60048036038101906102c89190612756565b61096f565b6040516102da919061285a565b60405180910390f35b6102fd60048036038101906102f8919061280b565b610993565b005b61031960048036038101906103149190612875565b6109ff565b005b610323610a1f565b6040516103309190612986565b60405180910390f35b610353600480360381019061034e9190612756565b610a77565b604051610360919061285a565b60405180910390f35b610383600480360381019061037e9190612756565b610aed565b60405161039091906127c4565b60405180910390f35b6103b360048036038101906103ae91906129a8565b610aff565b6040516103c0919061285a565b60405180910390f35b6103d1610bb9565b6040516103de91906126fe565b60405180910390f35b61040160048036038101906103fc9190612a01565b610c4b565b005b61040b610c61565b6040516104189190612986565b60405180910390f35b61043b60048036038101906104369190612b76565b610d0d565b005b61045760048036038101906104529190612756565b610d2a565b60405161046491906126fe565b60405180910390f35b61048760048036038101906104829190612756565b610d93565b60405161049693929190612bf9565b60405180910390f35b6104b960048036038101906104b49190612c30565b610e0b565b005b6104d560048036038101906104d09190612c70565b610feb565b6040516104e29190612653565b60405180910390f35b61050560048036038101906105009190612756565b61107f565b60405161051493929190612bf9565b60405180910390f35b6105256110e9565b6040516105329190612d0f565b60405180910390f35b61055560048036038101906105509190612c30565b61110f565b005b60007f780e9d63000000000000000000000000000000000000000000000000000000007bffffffffffffffffffffffffffffffffffffffffffffffffffffffff1916827bffffffffffffffffffffffffffffffffffffffffffffffffffffffff191614806105ca57506105c982611262565b5b9050919050565b6060600080546105e090612d59565b80601f016020809104026020016040519081016040528092919081815260200182805461060c90612d59565b80156106595780601f1061062e57610100808354040283529160200191610659565b820191906000526020600020905b81548152906001019060200180831161063c57829003601f168201915b5050505050905090565b600061066e82611344565b50610678826113cc565b9050919050565b610691828261068c611409565b611411565b5050565b3373ffffffffffffffffffffffffffffffffffffffff16600b600083815260200190815260200160002060010160009054906101000a900473ffffffffffffffffffffffffffffffffffffffff1673ffffffffffffffffffffffffffffffffffffffff1614610739576040517f08c379a000000000000000000000000000000000000000000000000000000000815260040161073090612dfc565b60405180910390fd5b6000600b600083815260200190815260200160002060010160006101000a81548173ffffffffffffffffffffffffffffffffffffffff021916908373ffffffffffffffffffffffffffffffffffffffff1602179055506000600b6000838152602001908152602001600020600201819055506107b481611423565b50565b6000600880549050905090565b600073ffffffffffffffffffffffffffffffffffffffff168273ffffffffffffffffffffffffffffffffffffffff16036108365760006040517f64a0ae9200000000000000000000000000000000000000000000000000000000815260040161082d91906127c4565b60405180910390fd5b600061084a8383610845611409565b61144f565b90508373ffffffffffffffffffffffffffffffffffffffff168173ffffffffffffffffffffffffffffffffffffffff16146108c0578382826040517f64283d7b0000000000000000000000000000000000000000000000000000000081526004016108b793929190612e1c565b60405180910390fd5b50505050565b60006108d183610aff565b82106109165782826040517fa57d13dc00000000000000000000000000000000000000000000000000000000815260040161090d929190612e53565b60405180910390fd5b600660008473ffffffffffffffffffffffffffffffffffffffff1673ffffffffffffffffffffffffffffffffffffffff168152602001908152602001600020600083815260200190815260200160002054905092915050565b600c818154811061097f57600080fd5b906000526020600020016000915090505481565b61099d828261156c565b81600b600083815260200190815260200160002060000160006101000a81548173ffffffffffffffffffffffffffffffffffffffff021916908373ffffffffffffffffffffffffffffffffffffffff1602179055506109fb81611423565b5050565b610a1a83838360405180602001604052806000815250610d0d565b505050565b6060600c805480602002602001604051908101604052809291908181526020018280548015610a6d57602002820191906000526020600020905b815481526020019060010190808311610a59575b5050505050905090565b6000610a816107b7565b8210610ac7576000826040517fa57d13dc000000000000000000000000000000000000000000000000000000008152600401610abe929190612e53565b60405180910390fd5b60088281548110610adb57610ada612e7c565b5b90600052602060002001549050919050565b6000610af882611344565b9050919050565b60008073ffffffffffffffffffffffffffffffffffffffff168273ffffffffffffffffffffffffffffffffffffffff1603610b725760006040517f89c62b64000000000000000000000000000000000000000000000000000000008152600401610b6991906127c4565b60405180910390fd5b600360008373ffffffffffffffffffffffffffffffffffffffff1673ffffffffffffffffffffffffffffffffffffffff168152602001908152602001600020549050919050565b606060018054610bc890612d59565b80601f0160208091040260200160405190810160405280929190818152602001828054610bf490612d59565b8015610c415780601f10610c1657610100808354040283529160200191610c41565b820191906000526020600020905b815481529060010190602001808311610c2457829003601f168201915b5050505050905090565b610c5d610c56611409565b8383611665565b5050565b60606000610c6e33610aff565b905060008167ffffffffffffffff811115610c8c57610c8b612a4b565b5b604051908082528060200260200182016040528015610cba5781602001602082028036833780820191505090505b50905060005b82811015610d0457610cd233826108c6565b828281518110610ce557610ce4612e7c565b5b6020026020010181815250508080610cfc90612eda565b915050610cc0565b50809250505090565b610d188484846107c4565b610d24848484846117d4565b50505050565b6060610d3582611344565b506000610d4061198b565b90506000815111610d605760405180602001604052806000815250610d8b565b80610d6a846119a2565b604051602001610d7b929190612f5e565b6040516020818303038152906040525b915050919050565b600080600080600b600086815260200190815260200160002090508060000160009054906101000a900473ffffffffffffffffffffffffffffffffffffffff168160010160009054906101000a900473ffffffffffffffffffffffffffffffffffffffff168260020154935093509350509193909250565b3373ffffffffffffffffffffffffffffffffffffffff16610e2b83610aed565b73ffffffffffffffffffffffffffffffffffffffff1603610e81576040517f08c379a0000000000000000000000000000000000000000000000000000000008152600401610e7890612fce565b60405180910390fd5b600073ffffffffffffffffffffffffffffffffffffffff16600b600084815260200190815260200160002060010160009054906101000a900473ffffffffffffffffffffffffffffffffffffffff1673ffffffffffffffffffffffffffffffffffffffff1614610f26576040517f08c379a0000000000000000000000000000000000000000000000000000000008152600401610f1d9061303a565b60405180910390fd5b610f2f82611a70565b33600b600084815260200190815260200160002060010160006101000a81548173ffffffffffffffffffffffffffffffffffffffff021916908373ffffffffffffffffffffffffffffffffffffffff1602179055508042610f90919061305a565b600b6000848152602001908152602001600020600201819055507f8879d78706834dc00d82232992f71250fab6a1f70b08260968253950083d88cd82334284604051610fdf949392919061308e565b60405180910390a15050565b6000600560008473ffffffffffffffffffffffffffffffffffffffff1673ffffffffffffffffffffffffffffffffffffffff16815260200190815260200160002060008373ffffffffffffffffffffffffffffffffffffffff1673ffffffffffffffffffffffffffffffffffffffff16815260200190815260200160002060009054906101000a900460ff16905092915050565b600b6020528060005260406000206000915090508060000160009054906101000a900473ffffffffffffffffffffffffffffffffffffffff16908060010160009054906101000a900473ffffffffffffffffffffffffffffffffffffffff16908060020154905083565b600a60009054906101000a900473ffffffffffffffffffffffffffffffffffffffff1681565b3373ffffffffffffffffffffffffffffffffffffffff16600b600084815260200190815260200160002060010160009054906101000a900473ffffffffffffffffffffffffffffffffffffffff1673ffffffffffffffffffffffffffffffffffffffff16146111b3576040517f08c379a00000000000000000000000000000000000000000000000000000000081526004016111aa90613145565b60405180910390fd5b600a60009054906101000a900473ffffffffffffffffffffffffffffffffffffffff1673ffffffffffffffffffffffffffffffffffffffff166323b872dd336111fb85610aed565b846040518463ffffffff1660e01b815260040161121a93929190612bf9565b6020604051808303816000875af1158015611239573d6000803e3d6000fd5b505050506040513d601f19601f8201168201806040525081019061125d919061317a565b505050565b60007f80ac58cd000000000000000000000000000000000000000000000000000000007bffffffffffffffffffffffffffffffffffffffffffffffffffffffff1916827bffffffffffffffffffffffffffffffffffffffffffffffffffffffff1916148061132d57507f5b5e139f000000000000000000000000000000000000000000000000000000007bffffffffffffffffffffffffffffffffffffffffffffffffffffffff1916827bffffffffffffffffffffffffffffffffffffffffffffffffffffffff1916145b8061133d575061133c82611b3b565b5b9050919050565b60008061135083611ba5565b9050600073ffffffffffffffffffffffffffffffffffffffff168173ffffffffffffffffffffffffffffffffffffffff16036113c357826040517f7e2732890000000000000000000000000000000000000000000000000000000081526004016113ba919061285a565b60405180910390fd5b80915050919050565b60006004600083815260200190815260200160002060009054906101000a900473ffffffffffffffffffffffffffffffffffffffff169050919050565b600033905090565b61141e8383836001611be2565b505050565b600c81908060018154018082558091505060019003906000526020600020016000909190919091505550565b60008061145d858585611da7565b9050600073ffffffffffffffffffffffffffffffffffffffff168173ffffffffffffffffffffffffffffffffffffffff16036114a15761149c84611fc1565b6114e0565b8473ffffffffffffffffffffffffffffffffffffffff168173ffffffffffffffffffffffffffffffffffffffff16146114df576114de818561200a565b5b5b600073ffffffffffffffffffffffffffffffffffffffff168573ffffffffffffffffffffffffffffffffffffffff16036115225761151d8461216b565b611561565b8473ffffffffffffffffffffffffffffffffffffffff168173ffffffffffffffffffffffffffffffffffffffff16146115605761155f858561223c565b5b5b809150509392505050565b600073ffffffffffffffffffffffffffffffffffffffff168273ffffffffffffffffffffffffffffffffffffffff16036115de5760006040517f64a0ae920000000000000000000000000000000000000000000000000000000081526004016115d591906127c4565b60405180910390fd5b60006115ec8383600061144f565b9050600073ffffffffffffffffffffffffffffffffffffffff168173ffffffffffffffffffffffffffffffffffffffff16146116605760006040517f73c6ac6e00000000000000000000000000000000000000000000000000000000815260040161165791906127c4565b60405180910390fd5b505050565b600073ffffffffffffffffffffffffffffffffffffffff168273ffffffffffffffffffffffffffffffffffffffff16036116d657816040517f5b08ba180000000000000000000000000000000000000000000000000000000081526004016116cd91906127c4565b60405180910390fd5b80600560008573ffffffffffffffffffffffffffffffffffffffff1673ffffffffffffffffffffffffffffffffffffffff16815260200190815260200160002060008473ffffffffffffffffffffffffffffffffffffffff1673ffffffffffffffffffffffffffffffffffffffff16815260200190815260200160002060006101000a81548160ff0219169083151502179055508173ffffffffffffffffffffffffffffffffffffffff168373ffffffffffffffffffffffffffffffffffffffff167f17307eab39ab6107e8899845ad3d59bd9653f200f220920489ca2b5937696c31836040516117c79190612653565b60405180910390a3505050565b60008373ffffffffffffffffffffffffffffffffffffffff163b1115611985578273ffffffffffffffffffffffffffffffffffffffff1663150b7a02611818611409565b8685856040518563ffffffff1660e01b815260040161183a94939291906131fc565b6020604051808303816000875af192505050801561187657506040513d601f19601f82011682018060405250810190611873919061325d565b60015b6118fa573d80600081146118a6576040519150601f19603f3d011682016040523d82523d6000602084013e6118ab565b606091505b5060008151036118f257836040517f64a0ae920000000000000000000000000000000000000000000000000000000081526004016118e991906127c4565b60405180910390fd5b805181602001fd5b63150b7a0260e01b7bffffffffffffffffffffffffffffffffffffffffffffffffffffffff1916817bffffffffffffffffffffffffffffffffffffffffffffffffffffffff19161461198357836040517f64a0ae9200000000000000000000000000000000000000000000000000000000815260040161197a91906127c4565b60405180910390fd5b505b50505050565b606060405180602001604052806000815250905090565b6060600060016119b1846122c7565b01905060008167ffffffffffffffff8111156119d0576119cf612a4b565b5b6040519080825280601f01601f191660200182016040528015611a025781602001600182028036833780820191505090505b509050600082602001820190505b600115611a65578080600190039150507f3031323334353637383961626364656600000000000000000000000000000000600a86061a8153600a8581611a5957611a5861328a565b5b04945060008503611a10575b819350505050919050565b60005b600c80549050811015611b375781600c8281548110611a9557611a94612e7c565b5b906000526020600020015403611b2457600c6001600c80549050611ab991906132b9565b81548110611aca57611ac9612e7c565b5b9060005260206000200154600c8281548110611ae957611ae8612e7c565b5b9060005260206000200181905550600c805480611b0957611b086132ed565b5b60019003818190600052602060002001600090559055611b37565b8080611b2f90612eda565b915050611a73565b5050565b60007f01ffc9a7000000000000000000000000000000000000000000000000000000007bffffffffffffffffffffffffffffffffffffffffffffffffffffffff1916827bffffffffffffffffffffffffffffffffffffffffffffffffffffffff1916149050919050565b60006002600083815260200190815260200160002060009054906101000a900473ffffffffffffffffffffffffffffffffffffffff169050919050565b8080611c1b5750600073ffffffffffffffffffffffffffffffffffffffff168273ffffffffffffffffffffffffffffffffffffffff1614155b15611d4f576000611c2b84611344565b9050600073ffffffffffffffffffffffffffffffffffffffff168373ffffffffffffffffffffffffffffffffffffffff1614158015611c9657508273ffffffffffffffffffffffffffffffffffffffff168173ffffffffffffffffffffffffffffffffffffffff1614155b8015611ca95750611ca78184610feb565b155b15611ceb57826040517fa9fbf51f000000000000000000000000000000000000000000000000000000008152600401611ce291906127c4565b60405180910390fd5b8115611d4d57838573ffffffffffffffffffffffffffffffffffffffff168273ffffffffffffffffffffffffffffffffffffffff167f8c5be1e5ebec7d5bd14f71427d1e84f3dd0314c0f7b2291e5b200ac8c7c3b92560405160405180910390a45b505b836004600085815260200190815260200160002060006101000a81548173ffffffffffffffffffffffffffffffffffffffff021916908373ffffffffffffffffffffffffffffffffffffffff16021790555050505050565b600080611db384611ba5565b9050600073ffffffffffffffffffffffffffffffffffffffff168373ffffffffffffffffffffffffffffffffffffffff1614611df557611df481848661241a565b5b600073ffffffffffffffffffffffffffffffffffffffff168173ffffffffffffffffffffffffffffffffffffffff1614611e8657611e37600085600080611be2565b6001600360008373ffffffffffffffffffffffffffffffffffffffff1673ffffffffffffffffffffffffffffffffffffffff168152602001908152602001600020600082825403925050819055505b600073ffffffffffffffffffffffffffffffffffffffff168573ffffffffffffffffffffffffffffffffffffffff1614611f09576001600360008773ffffffffffffffffffffffffffffffffffffffff1673ffffffffffffffffffffffffffffffffffffffff168152602001908152602001600020600082825401925050819055505b846002600086815260200190815260200160002060006101000a81548173ffffffffffffffffffffffffffffffffffffffff021916908373ffffffffffffffffffffffffffffffffffffffff160217905550838573ffffffffffffffffffffffffffffffffffffffff168273ffffffffffffffffffffffffffffffffffffffff167fddf252ad1be2c89b69c2b068fc378daa952ba7f163c4a11628f55a4df523b3ef60405160405180910390a4809150509392505050565b6008805490506009600083815260200190815260200160002081905550600881908060018154018082558091505060019003906000526020600020016000909190919091505550565b600061201583610aff565b90506000600760008481526020019081526020016000205490508181146120fa576000600660008673ffffffffffffffffffffffffffffffffffffffff1673ffffffffffffffffffffffffffffffffffffffff168152602001908152602001600020600084815260200190815260200160002054905080600660008773ffffffffffffffffffffffffffffffffffffffff1673ffffffffffffffffffffffffffffffffffffffff168152602001908152602001600020600084815260200190815260200160002081905550816007600083815260200190815260200160002081905550505b6007600084815260200190815260200160002060009055600660008573ffffffffffffffffffffffffffffffffffffffff1673ffffffffffffffffffffffffffffffffffffffff16815260200190815260200160002060008381526020019081526020016000206000905550505050565b6000600160088054905061217f91906132b9565b90506000600960008481526020019081526020016000205490506000600883815481106121af576121ae612e7c565b5b9060005260206000200154905080600883815481106121d1576121d0612e7c565b5b9060005260206000200181905550816009600083815260200190815260200160002081905550600960008581526020019081526020016000206000905560088054806122205761221f6132ed565b5b6001900381819060005260206000200160009055905550505050565b6000600161224984610aff565b61225391906132b9565b905081600660008573ffffffffffffffffffffffffffffffffffffffff1673ffffffffffffffffffffffffffffffffffffffff168152602001908152602001600020600083815260200190815260200160002081905550806007600084815260200190815260200160002081905550505050565b600080600090507a184f03e93ff9f4daa797ed6e38ed64bf6a1f0100000000000000008310612325577a184f03e93ff9f4daa797ed6e38ed64bf6a1f010000000000000000838161231b5761231a61328a565b5b0492506040810190505b6d04ee2d6d415b85acef81000000008310612362576d04ee2d6d415b85acef810000000083816123585761235761328a565b5b0492506020810190505b662386f26fc10000831061239157662386f26fc1000083816123875761238661328a565b5b0492506010810190505b6305f5e10083106123ba576305f5e10083816123b0576123af61328a565b5b0492506008810190505b61271083106123df5761271083816123d5576123d461328a565b5b0492506004810190505b6064831061240257606483816123f8576123f761328a565b5b0492506002810190505b600a8310612411576001810190505b80915050919050565b6124258383836124de565b6124d957600073ffffffffffffffffffffffffffffffffffffffff168373ffffffffffffffffffffffffffffffffffffffff160361249a57806040517f7e273289000000000000000000000000000000000000000000000000000000008152600401612491919061285a565b60405180910390fd5b81816040517f177e802f0000000000000000000000000000000000000000000000000000000081526004016124d0929190612e53565b60405180910390fd5b505050565b60008073ffffffffffffffffffffffffffffffffffffffff168373ffffffffffffffffffffffffffffffffffffffff161415801561259657508273ffffffffffffffffffffffffffffffffffffffff168473ffffffffffffffffffffffffffffffffffffffff16148061255757506125568484610feb565b5b8061259557508273ffffffffffffffffffffffffffffffffffffffff1661257d836113cc565b73ffffffffffffffffffffffffffffffffffffffff16145b5b90509392505050565b6000604051905090565b600080fd5b600080fd5b60007fffffffff0000000000000000000000000000000000000000000000000000000082169050919050565b6125e8816125b3565b81146125f357600080fd5b50565b600081359050612605816125df565b92915050565b600060208284031215612621576126206125a9565b5b600061262f848285016125f6565b91505092915050565b60008115159050919050565b61264d81612638565b82525050565b60006020820190506126686000830184612644565b92915050565b600081519050919050565b600082825260208201905092915050565b60005b838110156126a857808201518184015260208101905061268d565b60008484015250505050565b6000601f19601f8301169050919050565b60006126d08261266e565b6126da8185612679565b93506126ea81856020860161268a565b6126f3816126b4565b840191505092915050565b6000602082019050818103600083015261271881846126c5565b905092915050565b6000819050919050565b61273381612720565b811461273e57600080fd5b50565b6000813590506127508161272a565b92915050565b60006020828403121561276c5761276b6125a9565b5b600061277a84828501612741565b91505092915050565b600073ffffffffffffffffffffffffffffffffffffffff82169050919050565b60006127ae82612783565b9050919050565b6127be816127a3565b82525050565b60006020820190506127d960008301846127b5565b92915050565b6127e8816127a3565b81146127f357600080fd5b50565b600081359050612805816127df565b92915050565b60008060408385031215612822576128216125a9565b5b6000612830858286016127f6565b925050602061284185828601612741565b9150509250929050565b61285481612720565b82525050565b600060208201905061286f600083018461284b565b92915050565b60008060006060848603121561288e5761288d6125a9565b5b600061289c868287016127f6565b93505060206128ad868287016127f6565b92505060406128be86828701612741565b9150509250925092565b600081519050919050565b600082825260208201905092915050565b6000819050602082019050919050565b6128fd81612720565b82525050565b600061290f83836128f4565b60208301905092915050565b6000602082019050919050565b6000612933826128c8565b61293d81856128d3565b9350612948836128e4565b8060005b838110156129795781516129608882612903565b975061296b8361291b565b92505060018101905061294c565b5085935050505092915050565b600060208201905081810360008301526129a08184612928565b905092915050565b6000602082840312156129be576129bd6125a9565b5b60006129cc848285016127f6565b91505092915050565b6129de81612638565b81146129e957600080fd5b50565b6000813590506129fb816129d5565b92915050565b60008060408385031215612a1857612a176125a9565b5b6000612a26858286016127f6565b9250506020612a37858286016129ec565b9150509250929050565b600080fd5b600080fd5b7f4e487b7100000000000000000000000000000000000000000000000000000000600052604160045260246000fd5b612a83826126b4565b810181811067ffffffffffffffff82111715612aa257612aa1612a4b565b5b80604052505050565b6000612ab561259f565b9050612ac18282612a7a565b919050565b600067ffffffffffffffff821115612ae157612ae0612a4b565b5b612aea826126b4565b9050602081019050919050565b82818337600083830152505050565b6000612b19612b1484612ac6565b612aab565b905082815260208101848484011115612b3557612b34612a46565b5b612b40848285612af7565b509392505050565b600082601f830112612b5d57612b5c612a41565b5b8135612b6d848260208601612b06565b91505092915050565b60008060008060808587031215612b9057612b8f6125a9565b5b6000612b9e878288016127f6565b9450506020612baf878288016127f6565b9350506040612bc087828801612741565b925050606085013567ffffffffffffffff811115612be157612be06125ae565b5b612bed87828801612b48565b91505092959194509250565b6000606082019050612c0e60008301866127b5565b612c1b60208301856127b5565b612c28604083018461284b565b949350505050565b60008060408385031215612c4757612c466125a9565b5b6000612c5585828601612741565b9250506020612c6685828601612741565b9150509250929050565b60008060408385031215612c8757612c866125a9565b5b6000612c95858286016127f6565b9250506020612ca6858286016127f6565b9150509250929050565b6000819050919050565b6000612cd5612cd0612ccb84612783565b612cb0565b612783565b9050919050565b6000612ce782612cba565b9050919050565b6000612cf982612cdc565b9050919050565b612d0981612cee565b82525050565b6000602082019050612d246000830184612d00565b92915050565b7f4e487b7100000000000000000000000000000000000000000000000000000000600052602260045260246000fd5b60006002820490506001821680612d7157607f821691505b602082108103612d8457612d83612d2a565b5b50919050565b7f596f752063616e206f6e6c792072657475726e2061206361722074686174207960008201527f6f7520626f72726f776564000000000000000000000000000000000000000000602082015250565b6000612de6602b83612679565b9150612df182612d8a565b604082019050919050565b60006020820190508181036000830152612e1581612dd9565b9050919050565b6000606082019050612e3160008301866127b5565b612e3e602083018561284b565b612e4b60408301846127b5565b949350505050565b6000604082019050612e6860008301856127b5565b612e75602083018461284b565b9392505050565b7f4e487b7100000000000000000000000000000000000000000000000000000000600052603260045260246000fd5b7f4e487b7100000000000000000000000000000000000000000000000000000000600052601160045260246000fd5b6000612ee582612720565b91507fffffffffffffffffffffffffffffffffffffffffffffffffffffffffffffffff8203612f1757612f16612eab565b5b600182019050919050565b600081905092915050565b6000612f388261266e565b612f428185612f22565b9350612f5281856020860161268a565b80840191505092915050565b6000612f6a8285612f2d565b9150612f768284612f2d565b91508190509392505050565b7f596f752063616e277420626f72726f7720796f7572206f776e20636172000000600082015250565b6000612fb8601d83612679565b9150612fc382612f82565b602082019050919050565b60006020820190508181036000830152612fe781612fab565b9050919050565b7f43617220697320616c726561647920626f72726f776564000000000000000000600082015250565b6000613024601783612679565b915061302f82612fee565b602082019050919050565b6000602082019050818103600083015261305381613017565b9050919050565b600061306582612720565b915061307083612720565b925082820190508082111561308857613087612eab565b5b92915050565b60006080820190506130a3600083018761284b565b6130b060208301866127b5565b6130bd604083018561284b565b6130ca606083018461284b565b95945050505050565b7f596f752063616e206f6e6c792070617920666f7220612063617220796f75206260008201527f6f72726f77656400000000000000000000000000000000000000000000000000602082015250565b600061312f602783612679565b915061313a826130d3565b604082019050919050565b6000602082019050818103600083015261315e81613122565b9050919050565b600081519050613174816129d5565b92915050565b6000602082840312156131905761318f6125a9565b5b600061319e84828501613165565b91505092915050565b600081519050919050565b600082825260208201905092915050565b60006131ce826131a7565b6131d881856131b2565b93506131e881856020860161268a565b6131f1816126b4565b840191505092915050565b600060808201905061321160008301876127b5565b61321e60208301866127b5565b61322b604083018561284b565b818103606083015261323d81846131c3565b905095945050505050565b600081519050613257816125df565b92915050565b600060208284031215613273576132726125a9565b5b600061328184828501613248565b91505092915050565b7f4e487b7100000000000000000000000000000000000000000000000000000000600052601260045260246000fd5b60006132c482612720565b91506132cf83612720565b92508282039050818111156132e7576132e6612eab565b5b92915050565b7f4e487b7100000000000000000000000000000000000000000000000000000000600052603160045260246000fdfea2646970667358221220739e10026a216700e5a8aea24539e9917e1f7481bf8488a8def5f695dfec8d1c64736f6c63430008140033",
  "linkReferences": {},
  "deployedLinkReferences": {}
}